:020000040000FA
:04100000E8EF0BF01A
:08100800056ED8CF06F0E0CF21
:1010100007F00001E9CF0DF0EACF08F0E1CF09F0C9
:10102000E2CF0AF0D9CF0BF0DACF0CF0F3CF14F007
:10103000F4CF15F0FACF16F000C00FF001C010F099
:1010400002C011F003C012F004C013F09DAA2CEFEF
:1010500008F09EBAB7EF08F00FC000F010C001F022
:1010600011C002F012C003F013C004F00DC0E9FF7C
:1010700008C0EAFF088E09C0E1FF0AC0E2FF0BC00A
:10108000D9FF0CC0DAFF14C0F3FF15C0F4FF16C07F
:10109000FAFF055007C0E0FF06C0D8FF1000F2CFEE
:1010A0000EF0F29EF76AB80FF66E100EF7220900E6
:1010B000F5500EBEF28E120082A8568482AA886A6B
:1010C0000000F2CF0EF0F29EF76ADC0FF66E100E03
:1010D000F7220900F5500EBEF28E120082A8569C2F
:1010E000829A8AA6C2DCAAA684620000F2CF0EF021
:1010F000F29EF76A060FF66E110EF7220900F55000
:101100000EBEF28E120082A856AA82A4A87A62723B
:10111000646060586058601A1400F2CF0EF0F29EBE
:10112000F76A340FF66E110EF7220900F5500EBE65
:10113000F28E120082A8569C829A8A7AA6C2DCAAF3
:10114000A684626A1A140000F2CF0EF0F29EF76ACB
:10115000620FF66E110EF7220900F5500EBEF28EE8
:10116000120082A856A48AA68AA81A140000036A4C
:101170005B501F0FE96E000E0320EA6EAECFEFFF4B
:101180005BC05CF0036A5B503D0F016E000E0322F2
:1011900003C0A0F0036A5B501F0FE96E000E03202E
:1011A000EA6EEFCFA1F0A0C0EAFF01C0E9FFA1C045
:1011B000EFFF1F504C0806E01DBE04D01D8E1E80A0
:1011C0001E845B6A1F50410803E11D861D941E8426
:1011D0005B2A1F504F0A09E01D0A0CE01E0A1BE0A3
:1011E000080A22E0140A28E02DD01D821D965C6AB0
:1011F0001E9028D05B5003080DE220C03EF021C0B5
:101200003FF022C040F05B6A200E1F6E939E8A7EE4
:101210001D921E9417D01D965B6A1D881D921E8418
:10122000939E8A8E1D940ED01D965B6A1D921E841D
:10123000939E8A9E1D9406D01D841D965B6A1D9206
:101240001E8400D09E9A2CEF08F0006A016A026AA0
:10125000036A756B766B776B786B745173117211CF
:1012600071112CE0200E796FD8906D376E376F3783
:10127000703775377637773778377451785D08E18E
:101280007351775D05E17251765D02E17151755DD3
:101290000FE37151755F7251D8A0723D765F735143
:1012A000D8A0733D775F7451D8A0743D785FD88023
:1012B0000036013602360336792FD6D7EA6A750E24
:1012C000E96E78EF09F0BF0E946E240EAC6E900EAE
:1012D000AB6E080EB86E706BB70E6F6F1B0E6E6F35
:1012E0006D6B746B736B6AC072F069C071F0ADD7CF
:1012F000010E005C6B6F000E01586C6F6C51B06E8C
:101300006BC0AFFFD89019301A02F350030F1B6E59
:10131000F2CF6DF0F29E1BC0A9FFA69CA69EA680F0
:10132000A8506DBFF28E186E22EF0CF0EA6A980E8C
:10133000E96EEF500EE00F0E016E006A002EFED730
:10134000012EFBD78F0E006E002EFED70000EF2E71
:10135000F2D7000CACA2FED7000EB8B6010E016E9B
:101360009DC000F0015204E0D8900032012EFCD75D
:1013700000501824AD6E000C1C6A036A1C509A259C
:10138000E96E9B510320EA6EEF520EE0036A1C5097
:101390009A25E96E9B510320EA6EEFCF9CF09CC02A
:1013A0009DF0D8DF1C2AE9D7000C939E8A7E020E9E
:1013B000916FFA0E986FBADF912FFBD7820E8C6F68
:1013C000A80E8D6F1A0E8E6F140E8F6F906B9B6B25
:1013D0008C0E9A6FD1DF939E8A7E040E916FFA0E67
:1013E000986FA4DF912FFBD7000C93948A84020E90
:1013F000B06E700EAF6ED9DF1DB005D0010EB06EAD
:10140000370EAF6ED2DF1DB005D0040EB06EE10E08
:10141000AF6ECBDF000C939E8A7E040E976FFA0EA0
:10142000986F84DF972FFBD7EA6A8C0EE96EF2CFB4
:1014300097F0F29E0B0E016EF76A000E85DE0A0031
:101440000900F5CFEEFF012EFBD797BFF28E9B6B05
:101450008C0E9A6F91DF939E8A7E040E976FFA0E20
:10146000986F64DF972FFBD739EF0AF093948A9433
:10147000D2D7020EB06E700EAF6E000CB6DF1D90AC
:10148000EA6A780EE96EF2CF8CF0F29E140E016ECD
:10149000F76A000E2BDE0A000900F5CFEEFF012EE1
:1014A000FBD78CBFF28E9B6B780E9A6F65DF939E95
:1014B0008A7E040E8C6FFA0E986F38DF8C2FFBD764
:1014C000EA6A780EE96EF2CF8CF0F29E130E016E8E
:1014D000F76A000E22DE0A000900F5CFEEFF012EAA
:1014E000FBD78CBFF28E9B6B780E9A6F45DF939E75
:1014F0008A7E040E8C6FFA0E986F18DF8C2FFBD744
:10150000B5DF1D921D90AEEF0BF0F2CF78F0F29E9A
:10151000210EA96EA69CA69EA680A85078BFF28E2A
:10152000000AD8B4EFD0F2CF7AF0F29E220EA96E64
:10153000A69CA69EA680A8507ABFF28E000AD8B4B8
:10154000E1D0020EB06E700EAF6E0A0E986FEEDE36
:10155000EA6A690EE96EF2CF78F0F29E090E016E2A
:10156000F76A000E9CDD0A000900F5CFEEFF012EA0
:10157000FBD778BFF28E9B6B690E9A6FFDDE020E71
:10158000786FFA0E986FD2DE782FFBD71A0E9D6F08
:10159000E1DE020E786FFA0E986FC8DE782FFBD767
:1015A0001DB02FD0040EB06EE10EAF6E0A0E986F14
:1015B000BDDEEA6A690EE96EF2CF78F0F29E090E9E
:1015C000016EF76A000E6BDD0A000900F5CFEEFF31
:1015D000012EFBD778BFF28E9B6B690E9A6FCCDE23
:1015E000020E786FFA0E986FA1DE782FFBD71A0ED5
:1015F0009D6FB0DE020E786FFA0E986F97DE782F2F
:10160000FBD71DB02FD0010EB06E370EAF6E0A0E95
:10161000986F8CDEEA6A690EE96EF2CF78F0F29E7E
:10162000090E016EF76A000E3ADD0A000900F5CFD7
:10163000EEFF012EFBD778BFF28E9B6B690E9A6F7F
:101640009BDE020E786FFA0E986F70DE782FFBD754
:101650001A0E9D6F7FDE020E786FFA0E986F66DEAF
:10166000782FFBD7020EB06E700EAF6E020E786F41
:10167000FA0E986F5BDE782FFBD7EA6A690EE96E87
:10168000F2CF78F0F29E0F0E016EF76A000E19DDB0
:101690000A000900F5CFEEFF012EFBD778BFF28ECE
:1016A0009B6B690E9A6F68DE020E786FFA0E986F68
:1016B0003DDE782FFBD71A0E9D6F4CDE020E786F41
:1016C000FA0E986F33DE782FFBD71DA019D0210EAC
:1016D000A96EA86AA69CA69EA684F2CF00F0F29EF0
:1016E0000F01550EA76EAA0EA76EA682A6B2FED750
:1016F000A6940050F2121D900A0E0001986F16DE9B
:101700001D921D90F2CF78F0F29E210EA96EA69C3C
:10171000A69EA680A85078BFF28E000A04E1020EB1
:10172000B06E700EAF6EF2CF78F0F29E210EA96E01
:10173000A69CA69EA680A85078BFF28E000A29E03B
:10174000F2CF7AF0F29E220EA96EA69CA69EA680EB
:10175000A8507ABFF28E000A1CE090D61DA019D0C6
:10176000220EA96EA86AA69CA69EA684F2CF00F0BF
:10177000F29E0F01550EA76EAA0EA76EA682A6B204
:10178000FED7A6940050F2121D900A0E0001986F29
:10179000CDDDF2CF78F0F29E220EA96EA69CA69E19
:1017A000A680A85078BFF28E000A04E1020EB06E47
:1017B000700EAF6E26EF0CF0ACA2FED769C0ADFF85
:1017C000000CACA2FED76B511824AD6EE0EF0CF00C
:1017D000F86AD09E088EEA6AE96AC150C00B0F0908
:1017E000C16E070EB46E0F0E186E330E196E0A0E10
:1017F0001A6EDF0E1B6E1C6A1D901D921D941D96A5
:101800001D981D9A1D9C1D9E1E901E921E845B6A33
:101810005C6A5D6A5E6A410E5F6E540E606F2B0EED
:10182000616F420E626F410E636F550E646F440E1E
:10183000656F350E666F676B686B250E6A6F800E7D
:10184000696F41D5C00EF2129D8A5FD61C6A1C508A
:1018500019080BE3036A1C501F0FE96E000E0320EA
:10186000EA6E200EEF6E1C2AF2D71C6A1C50190873
:101870000BE3036A1C503D0FE96E000E0320EA6E75
:10188000200EEF6E1C2AF2D71DA22DD0939E8A7EC9
:10189000C80E986F4BDD1EB01BD05D50030818E1D9
:1018A000020E5D6EFB0EA96E020EA86EA69CA69E91
:1018B000A684F2CF00F0F29E0F01550EA76EAA0E7D
:1018C000A76EA682A6B2FED7A6940050F21200011F
:1018D0004F0E696F71DF4B0E696F6EDF200E696FFF
:1018E0006BDF5B6AD1D71DA680D01D96200EA96E36
:1018F0005CC0A8FFA69CA69EA684F2CF00F0F29E34
:101900000F01550EA76EAA0EA76EA682A6B2FED72D
:10191000A6940050F2121C6A1C505C5C1FE3036A20
:101920001C501F0FE96E000E0320EA6EEFCF69F026
:101930001CC0A9FF69C0A8FFA69CA69EA684F2CFE2
:1019400000F0F29E550EA76EAA0EA76EA682A6B252
:10195000FED7A6940050F2121C2ADED71C6A1C5037
:101960005C5C0BE3036A1C501F0FE96E000E032042
:10197000EA6E200EEF6E1C2AF2D75C6A5B6A0001E9
:1019800034DDF2CF69F0F29E200EA96EA69CA69ED1
:10199000A680A85069BFF28E5C6E1C6A1C505C5C0D
:1019A00011E3F2CF69F0F29E1CC0A9FFA69CA69E8F
:1019B000A680A85069BFF28E6A6F6AC06BF001D72B
:1019C0001C2AECD7010E5C241C6E1C50180805E381
:1019D000400E9D6FBFDC1C2AF8D71A0E9D6FBADC33
:1019E000140E9D6FB7DC42DD5C6A1DB249D01EA4A7
:1019F00047D0F2CF69F0F29EFB0EA96EA69CA69E80
:101A0000A680A85069BFF28E5D6E5D3C1AD05E2A3A
:101A10005E50030816E2FB0EA96E030EA86EA69C8C
:101A2000A69EA684F250006EF29E0F01550EA76E80
:101A3000AA0EA76EA682A6B2FED7A6940050F212F6
:101A400000011DB81DD05D5003081AE11EB018D06A
:101A5000939E8A7E5C500C0802E25C3C11D01D868D
:101A60000C0E5C6E5FC03DF061C03FF05FC041F0A6
:101A7000450E436E530E446E4E0E466E530E486E28
:101A8000770E006E002EFED700D01EA408D0040EE4
:101A9000696FFA0E986F4ADC692FFBD75B6A672B78
:101AA0003E50675D03E3939A8A9A02D0939A8A8A9A
:101AB0003F50675D03E393968A9602D093968A8699
:101AC0004050675D03E393988A9802D093988A8880
:041AD000DBD603005E
:020000040030CA
:0E000000240E3E1E008381000FC00FE00F4053
:00000001FF
;PIC18F4550
;CRC=780F  CREATED="01-out-14 16:40"
