:020000040000FA
:0410000048EF09F0BC
:08100800056ED8CF06F0E0CF21
:1010100007F00001E9CF0DF0EACF08F0E1CF09F0C9
:10102000E2CF0AF0D9CF0BF0DACF0CF0F3CF14F007
:10103000F4CF15F0FACF16F000C00FF001C010F099
:1010400002C011F003C012F004C013F09DAA2CEFEF
:1010500008F09EBA4FEF08F00FC000F010C001F08A
:1010600011C002F012C003F013C004F00DC0E9FF7C
:1010700008C0EAFF088E09C0E1FF0AC0E2FF0BC00A
:10108000D9FF0CC0DAFF14C0F3FF15C0F4FF16C07F
:10109000FAFF055007C0E0FF06C0D8FF1000036A42
:1010A00059501D0FE96E000E0320EA6EAECFEFFF20
:1010B00059C05AF0036A59503B0F016E000E0322CB
:1010C00003C07CF0036A59501D0FE96E000E032027
:1010D000EA6EEFCF7DF07CC0EAFF01C0E9FF7DC082
:1010E000EFFF1D504C0806E01CB804D01C881C8A79
:1010F0001C8C596A1D50410803E11C841C901C8CF7
:10110000592A1D504F0A09E01D0A0CE01E0A1BE077
:10111000080A22E0140A28E02DD01C821C945A6A86
:101120001C9A28D0595003080DE21EC03CF01FC085
:101130003DF020C03EF0596A200E1D6E939E8A7EBF
:101140001C921C9C17D01C94596A1C861C921C8CE7
:10115000939E8A8E1C900ED01C94596A1C921C8CF3
:10116000939E8A9E1C9006D01C801C94596A1C92E7
:101170001C8C00D09E9A2CEF08F0006A016A026A6B
:10118000036A766B776B786B796B75517411731199
:1011900072112CE0200E7A6FD8906E376F3770374F
:1011A000713776377737783779377551795D08E158
:1011B0007451785D05E17351775D02E17251765D9E
:1011C0000FE37251765F7351D8A0733D775F74510E
:1011D000D8A0743D785F7551D8A0753D795FD880EF
:1011E00000360136023603367A2FD6D7EA6A760EF3
:1011F000E96E10EF09F0BF0E946E240EAC6E900EE7
:10120000AB6E080EB86E716BB70E706F1B0E6F6F02
:101210006E6B756B746B6BC073F06AC072F0ADD798
:10122000010E005C6C6F000E01586D6F6D51B06E59
:101230006CC0AFFFD89019301A02F350030F1B6E29
:10124000F2CF6EF0F29E1BC0A9FFA69CA69EA680C0
:10125000A8506EBFF28E186E80EF09F0EA6A6B0E2E
:10126000E96EEF500EE00F0E016E006A002EFED701
:10127000012EFBD78F0E006E002EFED70000EF2E42
:10128000F2D7000CACA2FED76B511824AD6E000C47
:10129000F86AD09E088EEA6AE96AC150C00B0F094D
:1012A000C16E070EB46E0F0E186E330E196E0A0E55
:1012B0001A6EDF0E1B6E1C901C921C941C961C98C0
:1012C0001C9A1C8C596A5A6A5B6A5C6A5D6A410E98
:1012D0005E6E540E5F6E2B0E606F420E616F410E9C
:1012E000626F550E636F440E646F350E656F666BEB
:1012F000676B686B696B250E6B6F800E6A6F7BD7AF
:10130000C00EF2129D8A5B6A5B5019080BE3036AF8
:101310005B501D0FE96E000E0320EA6E200EEF6E8B
:101320005B2AF2D75B6A5B5019080BE3036A5B50D8
:101330003B0FE96E000E0320EA6E200EEF6E5B2A73
:10134000F2D7020EB06E700EAF6E1CA00CD0939E42
:101350008A7E020E6A6F960E6B6F80DF6A2FFBD754
:10136000596A5A6AF2D71CA22DD0939E8A7EC80E63
:101370006B6F74DF1CBA1BD05C50030818E1020EBF
:101380005C6EFB0EA96E020EA86EA69CA69EA6849D
:10139000F2CF00F0F29E0F01550EA76EAA0EA76EB7
:1013A000A682A6B2FED7A6940050F21200014F0EFC
:1013B0006B6F68DF4B0E6B6F65DF200E6B6F62DF4C
:1013C000596AD1D71CAA2DD01CB22BD01CB629D05B
:1013D000040EB06EE10EAF6E5EC06BF053DF5FC007
:1013E0006BF050DF60C06BF04DDF61C06BF04ADF27
:1013F00062C06BF047DF63C06BF044DF64C06BF02A
:1014000041DF65C06BF03EDF040E6A6FFA0E6B6F52
:1014100025DF6A2FFBD7939E8A7E020EB06E700E78
:10142000AF6E1CA487D01C94939E8A7E5A500C08E1
:1014300034E15FC03CF04E0E3E6E4D0E406E5EC01D
:1014400043F063C045F061C047F05B6A5B505A5C93
:101450000EE3036A5B503B0FE96E000E0320EA6E59
:10146000EFCF6AF06AC06BF00DDF5B2AEFD7010E99
:101470005A245B6E5B50180805E3200E6B6F02DF89
:101480005B2AF8D7682BD8B4692B695303E16851FC
:10149000040803E2696B686B1C8AFA0EA96E5AC0D5
:1014A000A8FFA69CA69EA684F2CF00F0F29E0F0194
:1014B000550EA76EAA0EA76EA682A6B2FED7A69458
:1014C0000050F2121CA62ED05B6A5B50190810E384
:1014D000036A5B503B0FE96E000E0320EA6EEFCF0C
:1014E0006AF06AC06BF00001CDDE5B2A0F01EDD718
:1014F0005B6A5B50190814E3036A5B501D0FE96EC9
:10150000000E0320EA6E200EEF6E036A5B503B0F65
:10151000E96E000E0320EA6E200EEF6E5B2AE9D71B
:10152000596A5A6A040E00016A6FFA0E6B6F96DEF2
:101530006A2FFBD71CB249D01CAC47D0F2CF6AF05F
:10154000F29EFB0EA96EA69CA69EA680A8506ABF1E
:10155000F28E5C6E5C3C1AD05D2A5D50030816E288
:10156000FB0EA96E030EA86EA69CA69EA684F25042
:10157000006EF29E0F01550EA76EAA0EA76EA682F0
:10158000A6B2FED7A6940050F21200011CB61DD0E0
:101590005C5003081AE11CBA18D0939E8A7E5A50F8
:1015A0000C0802E25A3C11D01C840C0E5A6E5EC02C
:1015B0003BF060C03DF05EC03FF0450E416E530E03
:1015C000426E4E0E446E530E466E770E006E002E27
:1015D000FED700D01CAC08D0040E6A6FFA0E6B6FF9
:1015E0003DDE6A2FFBD7596A662BD8B4672B67514B
:1015F000000802E2676B666B675303E13C50665D6F
:1016000003E394948B8402D094948B94675303E106
:101610003D50665D03E394908B8002D094908B9054
:10162000675303E13E50665D03E394928B8202D0E0
:0816300094928B928AD603000C
:020000040030CA
:0E000000240E3E1E008381000FC00FE00F4053
:00000001FF
;PIC18F4550
;CRC=C07B  CREATED="29-dez-14 12:45"
