:020000040000FA
:04100000A6EF0AF05D
:08100800056ED8CF06F0E0CF21
:1010100007F00001E9CF0DF0EACF08F0E1CF09F0C9
:10102000E2CF0AF0D9CF0BF0DACF0CF0F3CF14F007
:10103000F4CF15F0FACF16F000C00FF001C010F099
:1010400002C011F003C012F004C013F09DAA2CEFEF
:1010500008F09EBA9EEF08F00FC000F010C001F03B
:1010600011C002F012C003F013C004F00DC0E9FF7C
:1010700008C0EAFF088E09C0E1FF0AC0E2FF0BC00A
:10108000D9FF0CC0DAFF14C0F3FF15C0F4FF16C07F
:10109000FAFF055007C0E0FF06C0D8FF1000F2CFEE
:1010A0000EF0F29EF76AB80FF66E100EF7220900E6
:1010B000F5500EBEF28E120068747470733A2F2FC2
:1010C0006170692E786976656C792E636F6D2F7605
:1010D000322F66656564732F3132333438373238D6
:1010E00030312F6461746173747265616D732F5355
:1010F000656E736F72342E6373763F6B65793D4412
:10110000425231484F4879644742694B3558634DE4
:101110005A54496C775A4B37416862576E7038554C
:1011200077796B6E7830615A565345493857422665
:101130005F6D6574686F643D70757400036A5A5022
:101140001E0FE96E000E0320EA6EAECFEFFF5AC00D
:101150005BF0036A5A503C0F016E000E032201013E
:1011600003C005F1036A5A501E0FE96E000E0320FA
:10117000EA6EEFCF06F105C1EAFF01C0E9FF06C143
:10118000EFFF1E504C0806E01DBA04D01D8A1D8CCE
:101190001D8E5A6A1E50410803E11D861D901D8E4A
:1011A0005A2A1E504F0A000109E01D0A0CE01E0ACF
:1011B0001BE0080A22E0140A28E02DD01D821D96AB
:1011C0005B6A1D9C28D05A5003080DE21FC03DF0F9
:1011D00020C03EF021C03FF05A6A200E1E6E939E42
:1011E0008A7E1D921D9E17D01D965A6A1D881D92DB
:1011F0001D8E939E8A8E1D900ED01D965A6A1D924A
:101200001D8E939E8A9E1D9006D01D801D965A6A43
:101210001D921D8E00D09E9A2CEF08F0006A016A84
:10122000026A036AFF6B0101006B016B026B000134
:10123000FE51FD11FC11FB1146E0200E0101036F70
:10124000D8900001F737F837F937FA37FF3701013F
:101250000037013702370001FE510101025D0EE146
:101260000001FD510101015D09E10001FC51010195
:10127000005D04E10001FB51FF5D01011DE3000180
:10128000FB51FF5FFC51D8A0FC3D01D003D0010110
:10129000005F0001FD51D8A0FD3D01D003D0010148
:1012A000015F0001FE51D8A0FE3D01D003D0010135
:1012B000025F0001D8800101003601360236033694
:1012C000032FBED70001EA6AFF0EE96E7DEF09F039
:1012D000BF0E946E240EAC6E900EAB6E080EB86E00
:1012E000FA6BB70EF96F1B0EF86FF76BFE6BFD6BA9
:1012F000F4C0FCF0F3C0FBF091D7010E005CF56F79
:10130000000E0158F66FF651B06EF5C0AFFFD890E1
:1013100019301A02F350030F1B6EF2CFF7F0F29E52
:101320001BC0A9FFA69CA69EA680A850F7BFF28E60
:10133000186EE0EF0AF0EA6AF40EE96EEF500EE084
:101340000F0E016E006A002EFED7012EFBD78F0E06
:10135000006E002EFED70000EF2EF2D7000CACA2DC
:10136000FED7FA511824AD6E000C1C6A036A1C509B
:10137000F625E96EF7510320EA6EEF520EE0036A9C
:101380001C50F625E96EF7510320EA6EEFCFF8F016
:10139000F8C0FAF0E4DF1C2AE9D7000C016A026AFF
:1013A000006A036AFA5102E1F95118E0100EFB6F6E
:1013B000D890F737F83700360336FA51035C02E16C
:1013C000F951005C07E3F951005ED8A00306FA5119
:1013D000035ED88001360236FB2FEAD7000CF451A9
:1013E000260827E2FF0A03E1F3510F0822E2F4C0C6
:1013F000F8F0F3C0F7F0270EFA6F100EF96FCEDF9A
:1014000002C0F6F001C0F5F002C0F8F001C0F7F03C
:10141000FA6B0A0EF96FC2DF00C0F6F003C0F7F0F6
:10142000300E0024F86F000E0320F96FF8C0FAF0B8
:1014300096DFF451020827E2FF0A03E1F351E708BF
:1014400022E2F4C0F8F0F3C0F7F0030EFA6FE80EF2
:10145000F96FA4DF02C0F6F001C0F5F002C0F8F0A9
:1014600001C0F7F0FA6B0A0EF96F98DF00C0F6F0D2
:1014700003C0F7F0300E0024F86F000E0320F96F60
:10148000F8C0FAF06CDFF45303E1F351630821E292
:10149000F4C0F8F0F3C0F7F0FA6B640EF96F7EDF7A
:1014A00002C0F6F001C0F5F002C0F8F001C0F7F09C
:1014B000FA6B0A0EF96F72DF00C0F6F003C0F7F0A6
:1014C000300E0024F86F000E0320F96FF8C0FAF018
:1014D00046DFF45303E1F351090821E2F4C0F8F0C8
:1014E000F3C0F7F0FA6B0A0EF96F58DF02C0F6F09E
:1014F00001C0F5F002C0F8F001C0F7F0FA6B0A0E77
:10150000F96F4CDF00C0F6F003C0F7F0300E002496
:10151000F86F000E0320F96FF8C0FAF020DFF4C076
:10152000F8F0F3C0F7F0FA6B0A0EF96F37DF00C07E
:10153000F5F003C0F6F0300E0024F76F000E032024
:10154000F86FF7C0FAF00BDF5AEF0BF0F86AD09E95
:10155000088EEA6AE96AC150C00B0F09C16E070E16
:10156000B46E0F0E186E330E196E0A0E1A6EDF0E61
:101570001B6E1C6A1D901D921D941D961D981D9A30
:101580001D9C1D8E5A6A5B6A5C6A5D6A5E6A410ECA
:101590005F6E540E606F2B0E616F420E626F410ED4
:1015A000636F550E646F440E656F350E666F676B23
:1015B000686B696B6A6B250EF46F800EF36F88D6CB
:1015C000C00EF2129D8A1C6A1C5019080BE3036AB4
:1015D0001C501E0FE96E000E0320EA6E200EEF6E07
:1015E0001C2AF2D71C6A1C5019080BE3036A1C5012
:1015F0003C0FE96E000E0320EA6E200EEF6E1C2AEF
:10160000F2D7020EB06E700EAF6E1DA00CD0939E7E
:101610008A7E020EF36F960EF46F8DDEF32FFBD7EA
:101620005A6A5B6AF2D7968684B63FD01D941DBC79
:101630001BD05C50030818E1020E5C6EFB0EA96E15
:10164000020EA86EA69CA69EA684F2CF00F0F29E83
:101650000F01550EA76EAA0EA76EA682A6B2FED7E0
:10166000A6940050F2120001EA6A6B0EE96EF2CF06
:10167000F3F0F29E840E016EF76A000E10DD0A0090
:101680000900F5CFEEFF012EFBD7F3BFF28EF76B0B
:101690006B0EF66F6ADE5A6A939E8A7E080EF36FAF
:1016A000FA0EF46F48DEF32FFBD75E2AF46B5EC0B0
:1016B000F3F095D6230EFA6F52DE040EF36FFA0E96
:1016C000F46F39DEF32FFBD7939E8A7E320EEF6FD5
:1016D000300EF06F2A0EF16FF26BF76BEF0EF66FB4
:1016E00044DE040EF36FFA0EF46F25DEF32FFBD702
:1016F000939E8A7E330EEF6F300EF06F210EF16FE6
:10170000F26BF76BEF0EF66F30DE040EF36FFA0E2E
:10171000F46F11DEF32FFBD7939E8A7E340EEF6FAA
:10172000300EF06F240EF16FF26BF76BEF0EF66F69
:101730001CDE080EF36FFA0EF46FFDDDF32FFBD7FE
:08174000939E8A7E62D703002C
:020000040030CA
:0E000000240E3E1E008381000FC00FE00F4053
:00000001FF
;PIC18F4550
;CRC=8892  CREATED="03-jan-15 23:18"
