:041000000CEF08F0F9
:10100800FACF28F0FBCF29F0E9CF2AF05DED3BF0CD
:101018006DEF34F00082A856AA82A4A87A6272649E
:101028006060586058601A140082A8569C829A8A98
:101038007AA6C2DCAAA684626A1A140082A8569C00
:10104800829A8A909ABEA6C2DCAAA6840082A85672
:101058009C829A8AA6C2DCAAA684620082A856A4A8
:101068008AA68AA81A140082A8568482AA886A00C6
:1010780082A8568482AA886A0082A856A48AA68A68
:0C108800A80082A81A140082A800000032
:10673600DF0F20200FDF20202020E8CF36F0ACA28C
:10674600FED746503624AD6E1200E8CF36F0FA0E6C
:1067560000F0E82EFDD7362EFAD71200E8CF36F035
:1067660036C0A9FFA694A69EA69CA680A850120095
:10677600F20E1516ABAC03D01590ABB01580ABB4CA
:106786001584ABB21586AECF22F022501200E8CFA8
:1067960037F0A69EA69CA68437C0A9FF36C0A8FFE0
:1067A600550EA76EAA0EA76EA682A6A21200FDD748
:1067B600E8CF38F0ACA2FED7B8A603D0366A362AA0
:1067C60001D0366A38C037F0362A02D0D890373230
:1067D600362EFCD737504624AD6E1200365038029E
:1067E600F3CF3AF0F4CF3BF036503902F3CFF4FF53
:1067F600F36AF3503A26F4503B2237503802F3CF6F
:10680600F4FFF36AF3503A26F4503B223AC036F0CE
:106816003BC037F012007C0E376E0F0E366E66ECFC
:1068260037F0010E3D6EF40E3C6E8EEC34F0100E19
:106836003A6E8A0E396EDCEC34F07C0E376E0F0E33
:10684600366E66EC37F0030E3D6EE80E3C6E8EEC4F
:1068560034F012007C0E376E0F0E366E66EC37F093
:10686600030E3D6EE80E3C6E8EEC34F0100E3A6E62
:10687600640E396EDCEC34F07C0E376E0F0E366E1D
:1068860066EC37F0070E3D6ED00E3C6E8EEC34F0A3
:1068960012007C0E376E0A0E366E81EC38F0020E50
:1068A600B06E700EAF6E0EEC34F00C500B10D8A418
:1068B60006D0010EB06E370EAF6E0EEC34F00C50F3
:1068C6000B10D8A406D0040EB06EE10EAF6E0EEC1F
:1068D60034F0120000EE60F04C0EEE6AE806FDE1C0
:1068E60000EE01F0210EEE6AE806FDE1360EF66EC8
:1068F600670EF76E000EF86E00EE42F010EE0AF02C
:106906000900F5CFEEFFE550E150FAE1000EF86E12
:1069160000014FEF3AF04650FD0FA96E4650A924EC
:106926000B0BA66EA866FED7000E3F6E000E3E6EDF
:1069360005D0010EA8EC33F03E4A3F2A3CC036F0A3
:106946003DC037F0000E396E0C0E386EF1EC33F0A8
:1069560036503E5C37503F58D8B01200EAD7FD0E8D
:10696600A96EA9500B0BA66EA866FED742C03DF0D5
:1069760043C03EF0000E396E7E0E386EA9CF36F05B
:10698600376A9EEC35F0363A373AF00E37163650FF
:106996000F0B3712F00E361636C03FF037C040F0F8
:1069A60065EC35F03D50476E4750B1EC33F0466E1E
:1069B60012003B6E000E196E3B5013D01950010D9C
:1069C60039C03BF03AC03CF0F3503B26F4503C2231
:1069D6003BC0F6FF3CC0F7FF0800F550DBEC33F098
:1069E600192A1950010D39C03BF03AC03CF0F3505A
:1069F6003B26F4503C223BC0F6FF3CC0F7FF0800A4
:106A0600F5500009D8B41200D9D74CEC34F0000E7A
:106A16000C6E000E0B6E100E3A6E1D0E396EDCEC0F
:106A260034F07C0E376E0F0E366E66EC37F0030EC2
:106A36003D6EE80E3C6E8EEC34F0100E3A6E310E62
:106A4600396EDCEC34F07C0E376E0F0E366E66EC6B
:106A560037F0030E3D6EE80E3C6E8EEC34F035ECEE
:106A660035F012007C0E376E0A0E366EB4EC39F035
:106A76002DEC34F0250EF66E100EF76E0800F5506C
:106A8600720AD8A404D0040EB06EE10EAF6E250EC5
:106A9600F66E100EF76E0800F550620AD8A404D000
:106AA600020EB06E700EAF6E250EF66E100EF76EFD
:106AB6000800F550660AD8A404D0010EB06E370E51
:106AC600AF6E1200000E00010001AE6F000E000155
:106AD600AD6F40503F10D8B429D0416E010E000171
:106AE6000001AC6F415006D0D8903F3640360001C9
:106AF6000001AC2B40AEF8D7000100010001D89090
:106B0600AD37AE373F503D5C40503E58D8A007D019
:106B16003F503D5E40503E5A00010001AD81D89085
:106B260040323F3200010001AC2FE6D7ADC03DF048
:106B3600AEC03EF012003A6E000E3C6E3A50375030
:106B4600800AF36E800EF35C000ED8B4365CD8B0C3
:106B560008D0366C371ED8B0372A3A6E010E3C6E16
:106B66003A503950800AF36E800EF35C000ED8B4AA
:106B7600385CD8B004D0386C391ED8B0392A3950B0
:106B86003810D8B41AD03A6E010E3B6E3A5004D083
:106B9600D890383639363B2A39AEFAD73850365C73
:106BA60039503758D8A004D03850365E3950375A45
:106BB600D890393238323B2EF1D73C50D8B404D075
:106BC600366C371ED8B0372A36C036F037C037F0A5
:106BD6001200948E949C240EAC6E900EAB6E080E32
:106BE600B86E000E366E1B0E376EB70E386E000E80
:106BF600396EB1C03AF0B2C03BF0B3C03CF0B4C09D
:106C06003DF08EEC36F036C0B5F037C0B6F038C081
:106C1600B7F039C0B8F046500001B5250001B96F8C
:106C2600000E0001B6210001BA6F000E0001B72167
:106C36000001BB6F000E0001B8210001BC6FFF0E02
:106C46000001B92500010001BD6FFF0E0001BA2148
:106C56000001BE6FFF0E0001BB210001BF6FFF0EDA
:106C66000001BC210001C06FBEC0B0FFBDC0AFFFB8
:106C76001200D08EF28E1AD0F28AD58E4BD09D801D
:106C8600CD8048D09D82CA8445D0A082B18042D0B2
:106C9600F288F19C3FD0F086F19A3CD0F088F198CA
:106CA60039D09D8C37D09D8A9F8A34D036C038F033
:106CB60037C039F039509D0AD8B40AD03D0AD8B445
:106CC60015D0500AD8B417D0020AD8B41CD022D096
:106CD6003850010AD8B4D3D7030AD8B4D3D7220A76
:106CE600D8B4E1D7600AD8B4DCD714D03850020A39
:106CF600D8B4CBD70FD03850080AD8B4CCD7180A96
:106D0600D8B4CCD707D03850100AD8B4C1D7300A77
:106D1600D8B4B2D71200000E00010001AC6F000E0D
:106D26000001AD6F000E0001AE6F000E0001AF6FE7
:106D36003D503A103B103C10D8B439D03E6E010E8F
:106D460000010001B06F3E5008D0D8903A363B366D
:106D56003C363D3600010001B02B3DAEF6D70001B2
:106D6600D8900001AC370001AD370001AE37000105
:106D7600AF373A50365C3B5037583C5038583D5048
:106D86003958D8A00BD03A50365E3B50375A3C5053
:106D9600385A3D50395A00010001AC81D8903D3235
:106DA6003C323B323A3200010001B02FD8D7ACC09A
:106DB60036F0ADC037F0AEC038F0AFC039F01200D3
:106DC6003CD0929080707ED0929280727BD09294CA
:106DD600807478D09296807675D09298807872D0AA
:106DE600929A807A6FD0939081706CD093928172D0
:106DF60069D09394817466D09396817663D0939884
:106E0600817860D0939A817A5DD0939C817C5AD0A8
:106E1600939E817E57D09490827054D094928272C1
:106E260051D0949482744ED0949C827C4BD0949E84
:106E3600827E48D0959E837E45D022C024F023C012
:106E460025F025507C0AD8A43DD02450000AD8B499
:106E5600B8D7010AD8B4B8D7030AD8B4B8D7010A44
:106E6600D8B4B8D7070AD8B4B8D7010AD8B4B8D7AF
:106E76000D0AD8B4B8D7010AD8B4B8D7030AD8B41B
:106E8600B8D7010AD8B4B8D7070AD8B4B8D7010A10
:106E9600D8B4B8D7030AD8B4B8D7010AD8B4B8D783
:106EA6001F0AD8B4B8D7010AD8B4B8D7030AD8B4D9
:106EB600B8D7040AD8B4B8D7010AD8B4B8D7080ADC
:106EC600D8B4B8D712003CD0929080707ED09292FF
:106ED60080727BD09294807478D09296807675D0AA
:106EE6009298807872D0929A807A6FD093908170BF
:106EF6006CD09392817269D09394817466D0939684
:106F0600817663D09398817860D0939A817A5DD0A8
:106F1600939C817C5AD0939E817E57D094908270A8
:106F260054D09492827251D0949482744ED0949C90
:106F3600827C4BD0949E827E48D0959E837E45D09F
:106F460036C038F037C039F039507C0AD8A43DD065
:106F56003850000AD8B4B8D7010AD8B4B8D7030A4B
:106F6600D8B4B8D7010AD8B4B8D7070AD8B4B8D7AE
:106F7600010AD8B4B8D70D0AD8B4B8D7010AD8B41C
:106F8600B8D7030AD8B4B8D7010AD8B4B8D7070A0D
:106F9600D8B4B8D7010AD8B4B8D7030AD8B4B8D782
:106FA600010AD8B4B8D71F0AD8B4B8D7010AD8B4DA
:106FB600B8D7030AD8B4B8D7040AD8B4B8D7010AE0
:106FC600D8B4B8D7080AD8B4B8D7120045D092902A
:106FD600808093D09292808290D0929480848DD03B
:106FE600929680868AD09298808887D0929A808A54
:106FF60084D0000E926E896880D0939081807DD077
:10700600939281827AD09394818477D09396818665
:1070160074D09398818871D0939A818A6ED0939C0C
:10702600818C6BD0939E818E68D0000E936E8A6899
:1070360064D09490828061D0949282825ED094943F
:1070460082845BD0949C828C58D0949E828E55D03C
:10705600000E946E8B6851D022C024F023C025F018
:1070660025500F0AD8B404D0730AD8B40CD045D032
:107076002450800AD8B4BDD7010AD8B4D6D7030A9B
:10708600D8B4E6D73AD02450000AD8B4A0D7010A1B
:10709600D8B4A0D7030AD8B4A0D7010AD8B4A0D7C9
:1070A600070AD8B4A0D7010AD8B4A0D70D0AD8B415
:1070B600A4D7010AD8B4A4D7030AD8B4A4D7010A1E
:1070C600D8B4A4D7070AD8B4A4D7010AD8B4A4D789
:1070D600030AD8B4A4D7010AD8B4A4D71F0AD8B4CF
:1070E600A8D7010AD8B4A8D7030AD8B4A8D7040ADF
:1070F600D8B4A8D7010AD8B4A8D7120045D0929020
:10710600808093D09292808290D0929480848DD009
:10711600929680868AD09298808887D0929A808A22
:1071260084D0000E926E896880D0939081807DD045
:10713600939281827AD09394818477D09396818634
:1071460074D09398818871D0939A818A6ED0939CDB
:10715600818C6BD0939E818E68D0000E936E8A6868
:1071660064D09490828061D0949282825ED094940E
:1071760082845BD0949C828C58D0949E828E55D00B
:10718600000E946E8B6851D036C038F037C039F097
:1071960039500F0AD8B404D0730AD8B40CD045D0ED
:1071A6003850800AD8B4BDD7010AD8B4D6D7030A56
:1071B600D8B4E6D73AD03850000AD8B4A0D7010AD6
:1071C600D8B4A0D7030AD8B4A0D7010AD8B4A0D798
:1071D600070AD8B4A0D7010AD8B4A0D70D0AD8B4E4
:1071E600A4D7010AD8B4A4D7030AD8B4A4D7010AED
:1071F600D8B4A4D7070AD8B4A4D7010AD8B4A4D758
:10720600030AD8B4A4D7010AD8B4A4D71F0AD8B49D
:10721600A8D7010AD8B4A8D7030AD8B4A8D7040AAD
:10722600D8B4A8D7010AD8B4A8D7120048D09290EB
:10723600809096D09292809293D09294809490D09F
:10724600929680968DD0929880988AD0929A809ABB
:1072560087D0000E926E000E896E82D09390819038
:107266007FD0939281927CD09394819479D0939697
:10727600819676D09398819873D0939A819A70D09C
:10728600939C819C6DD0939E819E6AD0000E936ED6
:10729600000E8A6E65D09490829062D0949282920B
:1072A6005FD0949482945CD0949C829C59D0949E96
:1072B600829E56D0000E946E000E8B6E51D022C068
:1072C60024F023C025F025500F0AD8B404D0730A41
:1072D600D8B40CD045D02450800AD8B4BAD7010A05
:1072E600D8B4D4D7030AD8B4E5D73AD02450000A84
:1072F600D8B49DD7010AD8B49DD7030AD8B49DD770
:10730600010AD8B49DD7070AD8B49DD7010AD8B4C4
:107316009DD70D0AD8B4A2D7010AD8B4A2D7030ABA
:10732600D8B4A2D7010AD8B4A2D7070AD8B4A2D72C
:10733600010AD8B4A2D7030AD8B4A2D7010AD8B48E
:10734600A2D71F0AD8B4A7D7010AD8B4A7D7030A69
:10735600D8B4A7D7040AD8B4A7D7010AD8B4A7D7F0
:10736600120048D09290809096D09292809293D0BC
:107376009294809490D0929680968DD09298809890
:107386008AD0929A809A87D0000E926E000E896EED
:1073960082D0939081907FD0939281927CD0939467
:1073A600819479D09396819676D09398819873D06C
:1073B600939A819A70D0939C819C6DD0939E819E66
:1073C6006AD0000E936E000E8A6E65D094908290FD
:1073D60062D0949282925FD0949482945CD0949C72
:1073E600829C59D0949E829E56D0000E946E000EBA
:1073F6008B6E51D036C038F037C039F039500F0A8D
:10740600D8B404D0730AD8B40CD045D03850800A0A
:10741600D8B4BAD7010AD8B4D4D7030AD8B4E5D7B2
:107426003AD03850000AD8B49DD7010AD8B49DD7AF
:10743600030AD8B49DD7010AD8B49DD7070AD8B491
:107446009DD7010AD8B49DD70D0AD8B4A2D7010A90
:10745600D8B4A2D7030AD8B4A2D7010AD8B4A2D7FF
:10746600070AD8B4A2D7010AD8B4A2D7030AD8B457
:10747600A2D7010AD8B4A2D71F0AD8B4A7D7010A3F
:10748600D8B4A7D7030AD8B4A7D7040AD8B4A7D7BD
:10749600010AD8B4A7D71200B2EC34F09D0E376EAD
:1074A600200E366E3CEC36F0800E00010001B16F06
:1074B600250E0001B26F000E0001B36F000E000131
:1074C600B46FECEC35F0C9EC3CF0C10ED56E100E85
:1074D600D66ED08EF28EF28A0001C16F000E196E42
:1074E6000001C1510DD01950010D00017E0EF3248B
:1074F600D96E0001000EF420DA6E200EDF6E192A16
:10750600190E1964F0D712D07C0E376E0F0E366E38
:1075160066EC37F0010E3D6E2C0E3C6E8EEC34F0B0
:107526000001C16F000E1B6E0001C1511104121043
:10753600D8B4EAD705040610D8A4ACD0000E066E5F
:10754600000E056E1AC036F0200ECAEC33F00001AC
:10755600C16F000E196E0001C15110D01950010DF6
:1075660000017E0EF324D96E0001000EF420DA6EBF
:10757600DF50366E1950CAEC33F0192A19501A5CCE
:10758600D8B0ECD7220EB1EC33F00009D8A429D03C
:107596004CEC34F0200EB1EC33F01A6E0001C16FE2
:1075A600000E196E0001C15106D01950B1EC33F02E
:1075B600A0EC33F0192A19501A5CD8B0F6D71A285D
:1075C600196E04D0400EDBEC33F0192A180E19643C
:1075D600F9D71A0EDBEC33F0140EDBEC33F035EC96
:1075E60035F0210EB1EC33F00009D8A42ED0000EF0
:1075F600046E000E036E0001C16F000E196E0001CD
:10760600C15106D01950B1EC33F0A0EC33F0192A71
:1076160019501A5CD8B0F6D71A28196E04D0400E45
:10762600DBEC33F0192A180E1964F9D7010E3D6EFA
:10763600F40E3C6E8EEC34F01A0EDBEC33F0010ED9
:107646003D6EF40E3C6E8EEC34F00001C16F000E00
:10765600196E0001C1510DD01950010D00017E0EA9
:10766600F324D96E0001000EF420DA6E200EDF6ED0
:10767600192A19501A5CD8B0EFD70001C16F000E55
:107686001B6E0001C1510001C16F000E1A6E000190
:10769600C151F28A0001C16F000E1B6E0001C1517B
:1076A600030E3D6EE80E3C6E8EEC34F084B63ED78B
:1076B600FF003CD70600EACF2BF0E1CF2CF0E2CF5B
:1076C6002DF0D9CF2EF0DACF2FF0F3CF30F0F4CF64
:1076D60031F0F6CF32F0F7CF33F0F8CF34F0F5CF04
:1076E60035F0F2A458D0F2940F4A102A000E0F5C1F
:1076F600010E1058D8A004D0000E106E000E0F6EAA
:10770600000100016151266E276A26500F5C275042
:107716001058D8A007D07C0E236E120E226EE9EC0C
:1077260037F006D07C0E236E120E226E19EC39F05D
:10773600000100016251266E276A26500F5C275011
:107746001058D8A007D07C0E236E100E226EE9ECDE
:1077560037F006D07C0E236E100E226E19EC39F02F
:10776600000100016351266E276A26500F5C2750E0
:107776001058D8A007D07C0E236E110E226EE9ECAD
:1077860037F006D07C0E236E110E226E19EC39F0FE
:10779600D650100FD66E9EAADCD0F29A9E9A1B5037
:1077A600010D00017E0EF324D96E0001000EF420B7
:1077B600DA6EBBEC33F0DF6E1B50010D00017E0E5E
:1077C600F324D96E0001000EF420DA6E4F0EDF624C
:1077D60008D0000E0C6E010E0B6E266E000E1B6E90
:1077E60026500D0E1A6410D0000100017E51410A88
:1077F600D8A40AD01BC01AF0000E066E010E056E44
:10780600000E126E000E116E1B50010D00017E0E51
:10781600F324D96E0001000EF420DA6E520EDF62F8
:107826000AD0266E000E1B6E2650266E520E0001E2
:1078360000017E6F2650020E1B646FD0000100010E
:107846007E51520AD8A469D07FC061F080C062F030
:1078560081C063F0266E000E1B6E2650266E200E2B
:10786600000100017E6F26507C0E236E0F0E226EE5
:10787600E3EC36F0F28A51D0000E066E000E056E6D
:10788600000E046E010E036E266E000E1A6E265052
:10789600000E126E000E116E000E066E000E056EC4
:1078A600266E000E1B6E2650000E026E010E016E35
:1078B6007C0E236E0F0E226EE9EC37F00ED0000E12
:1078C600066E000E056E266E000E1B6E26507C0E92
:1078D600236E0F0E226E19EC39F0000E126E000E9A
:1078E600116E2DD0000E066E000E056E000E126E85
:1078F600010E0DD0000E066E000E056E7C0E236E78
:107906000F0E226EE3EC36F0000E126E000E116EB4
:10791600266E000E1B6E265012D0000100017E510D
:10792600300AD8B4E7D7740AD8B4C9D7080AD8B485
:10793600B3D7030AD8B4A0D71F0AD8B4D3D71B2A03
:107946001BC01AF01C0E1B6404D0266E000E1B6EA4
:10795600265035C0F5FF34C0F8FF33C0F7FF32C0FC
:10796600F6FF31C0F4FF30C0F3FF2FC0DAFF2EC0A0
:10797600D9FF2DC0E2FF2CC0E1FF2BC0EAFF2AC0D1
:10798600E9FF29C0FBFF28C0FAFF1100210EB1EC68
:1079960033F00009D8B4A7D1220EB1EC33F00009B8
:1079A600D8B4A1D1230EB1EC33F00009D8B49BD1E1
:1079B600040EB06EE10EAF6E000E3D6E0A0E3C6E0A
:1079C6008EEC34F0100E3A6E8F0E396EDCEC34F01D
:1079D600000E3D6EC80E3C6E8EEC34F00B040C109F
:1079E600D8A46FD0406E000E366E4050230ECAECFF
:1079F60033F07C0E376E0F0E366E66EC37F0100ED7
:107A06003A6E6F0E396EDCEC34F0000E3D6E640E8D
:107A16003C6E8EEC34F07C0E376E0F0E366E66ECD6
:107A260037F0000E3D6E640E3C6E8EEC34F07C0E2C
:107A3600376E0F0E366E66EC37F0100E3A6E440E49
:107A4600396EDCEC34F0000E3D6E640E3C6E8EEC4E
:107A560034F07C0E376E0F0E366E66EC37F0000E85
:107A66003D6E640E3C6E8EEC34F07C0E376E0F0E5F
:107A7600366E66EC37F0100E3A6E810E396EDCEC1F
:107A860034F0000E3D6E640E3C6E8EEC34F07C0ECF
:107A9600376E0F0E366E66EC37F0000E3D6E640ED6
:107AA6003C6E8EEC34F07C0E376E0F0E366E66EC46
:107AB60037F0000E0E6E010E0D6E000E0C6E000EEF
:107AC6000B6E090EB06EC30EAF6E000E3D6E0A0E43
:107AD6003C6E8EEC34F0100E3A6E8F0E396EDCEC86
:107AE60034F0000E3D6EC80E3C6E8EEC34F00B0486
:107AF6000C10D8A46FD0406E000E366E4050230E88
:107B0600CAEC33F07C0E376E0F0E366E66EC37F02D
:107B1600100E3A6E6F0E396EDCEC34F0000E3D6ED0
:107B2600640E3C6E8EEC34F07C0E376E0F0E366EA5
:107B360066EC37F0000E3D6E640E3C6E8EEC34F053
:107B46007C0E376E0F0E366E66EC37F0100E3A6E00
:107B5600440E396EDCEC34F0000E3D6E640E3C6E65
:107B66008EEC34F07C0E376E0F0E366E66EC37F008
:107B7600000E3D6E640E3C6E8EEC34F07C0E376E5D
:107B86000F0E366E66EC37F0100E3A6E810E396EB9
:107B9600DCEC34F0000E3D6E640E3C6E8EEC34F080
:107BA6007C0E376E0F0E366E66EC37F0000E3D6EAD
:107BB600640E3C6E8EEC34F07C0E376E0F0E366E15
:107BC60066EC37F0000E0E6E010E0D6E000E0C6E9A
:107BD600000E0B6E020EB06E700EAF6E000E3D6E96
:107BE6000A0E3C6E8EEC34F0100E3A6E8F0E396E25
:107BF600DCEC34F0000E3D6EC80E3C6E8EEC34F0BC
:107C06000B040C10D8A46FD0406E000E366E405098
:107C1600230ECAEC33F07C0E376E0F0E366E66EC12
:107C260037F0100E3A6E6F0E396EDCEC34F0000E43
:107C36003D6E640E3C6E8EEC34F07C0E376E0F0E8D
:107C4600366E66EC37F0000E3D6E640E3C6E8EECC2
:107C560034F07C0E376E0F0E366E66EC37F0100E73
:107C66003A6E440E396EDCEC34F0000E3D6E640E56
:107C76003C6E8EEC34F07C0E376E0F0E366E66EC74
:107C860037F0000E3D6E640E3C6E8EEC34F07C0ECA
:107C9600376E0F0E366E66EC37F0100E3A6E810EAA
:107CA600396EDCEC34F0000E3D6E640E3C6E8EECEC
:107CB60034F07C0E376E0F0E366E66EC37F0000E23
:107CC6003D6E640E3C6E8EEC34F07C0E376E0F0EFD
:107CD600366E66EC37F0000E0E6E010E0D6E000E5F
:107CE6000C6E000E0B6E230EB1EC33F00009D8A417
:107CF6002DD0760EF66E100EF76E0800F550600A5F
:107D0600D8A404D0040EB06EE10EAF6E760EF66EF9
:107D1600100EF76E0800F550620AD8A404D0020EC1
:107D2600B06E700EAF6E760EF66E100EF76E080021
:107D3600F5506A0AD8A404D0090EB06EC30EAF6E11
:107D4600000E3D6E640E3C6E8EEC34F0210EB1ECEE
:107D560033F00009D8B4C8D0220EB1EC33F00009D4
:107D6600D8B4C2D0230EB1EC33F00009D8B4BCD0DD
:107D7600020EB06E700EAF6E000E3D6E0A0E3C6EB9
:107D86008EEC34F0100E3A6E780E396EDCEC34F070
:107D9600010E3D6EF40E3C6E8EEC34F01A0EDBECEA
:107DA60033F0010E3D6EF40E3C6E8EEC34F00C504A
:107DB6000B10D8A41FD0040EB06EE10EAF6E000EED
:107DC6003D6E0A0E3C6E8EEC34F0100E3A6E780E56
:107DD600396EDCEC34F0010E3D6EF40E3C6E8EEC2A
:107DE60034F01A0EDBEC33F0010E3D6EF40E3C6EF1
:107DF6008EEC34F00C500B10D8A41FD0010EB06ED0
:107E0600370EAF6E000E3D6E0A0E3C6E8EEC34F0F1
:107E1600100E3A6E780E396EDCEC34F0010E3D6EC3
:107E2600F40E3C6E8EEC34F01A0EDBEC33F0010EE1
:107E36003D6EF40E3C6E8EEC34F07F0EF66E100E38
:107E4600F76E0800F550680AD8A404D0040EB06E88
:107E5600E10EAF6E7F0EF66E100EF76E0800F5504F
:107E66006A0AD8A404D0020EB06E700EAF6E7F0EF2
:107E7600F66E100EF76E0800F5506C0AD8A404D002
:107E8600010EB06E370EAF6E010E3D6EF40E3C6EF7
:107E96008EEC34F0100E3A6E550E396EDCEC34F082
:107EA600010E3D6EF40E3C6E8EEC34F01A0EDBECD9
:107EB60033F0010E3D6EF40E3C6E8EEC34F00B0486
:107EC6000C10D8A411D0406E000E366E4050210E14
:107ED600CAEC33F0000E0C6E000E0B6E000E3D6EFB
:107EE6000A0E3C6E8EEC34F0210EB1EC33F0000934
:107EF600D8A427D07F0EF66E100EF76E0800F55048
:107F0600680AD8A404D0040EB06EE10EAF6E7F0EE0
:107F1600F66E100EF76E0800F5506A0AD8A404D063
:107F2600020EB06E700EAF6E7F0EF66E100EF76E0E
:107F36000800F5506C0AD8A404D0010EB06E370EB6
:107F4600AF6E210EB1EC33F00009D8B428D0220E62
:107F5600B1EC33F00009D8B422D0230EB1EC33F0E3
:107F66000009D8B41CD0000E0C6E000E0B6E08EC87
:107F760035F0F19E0B040C10D8A411D0406E000E03
:107F8600366E4050220ECAEC33F0000E0C6E000E18
:107F96000B6E000E3D6E0A0E3C6E8EEC34F0220E19
:107FA600B1EC33F00009D8A427D0250EF66E100EDA
:107FB600F76E0800F550720AD8A404D0040EB06E0D
:107FC600E10EAF6E250EF66E100EF76E0800F55038
:107FD600620AD8A404D0020EB06E700EAF6E250EE3
:107FE600F66E100EF76E0800F550660AD8A404D097
:0A7FF600010EB06E370EAF6E1200E0
:020000040020DA
:08000000FFFFFFFFFFFFFFFF00
:020000040030CA
:0E00000000051F1FFF8385FF0FC00FE00F409C
:00000001FF
